{
  "contractName": "Migrations",
  "abi": [
    {
      "constant": true,
      "inputs": [],
      "name": "last_completed_migration",
      "outputs": [
        {
          "name": "",
          "type": "uint256"
        }
      ],
      "payable": false,
      "stateMutability": "view",
      "type": "function"
    },
    {
      "constant": true,
      "inputs": [],
      "name": "owner",
      "outputs": [
        {
          "name": "",
          "type": "address"
        }
      ],
      "payable": false,
      "stateMutability": "view",
      "type": "function"
    },
    {
      "inputs": [],
      "payable": false,
      "stateMutability": "nonpayable",
      "type": "constructor"
    },
    {
      "constant": false,
      "inputs": [
        {
          "name": "completed",
          "type": "uint256"
        }
      ],
      "name": "setCompleted",
      "outputs": [],
      "payable": false,
      "stateMutability": "nonpayable",
      "type": "function"
    },
    {
      "constant": false,
      "inputs": [
        {
          "name": "new_address",
          "type": "address"
        }
      ],
      "name": "upgrade",
      "outputs": [],
      "payable": false,
      "stateMutability": "nonpayable",
      "type": "function"
    }
  ],
  "bytecode": "0x6060604052341561000f57600080fd5b60008054600160a060020a033316600160a060020a03199091161790556102358061003b6000396000f3006060604052600436106100615763ffffffff7c01000000000000000000000000000000000000000000000000000000006000350416630900f0108114610066578063445df0ac146100945780638da5cb5b146100b9578063fdacd576146100f5575b600080fd5b341561007157600080fd5b61009273ffffffffffffffffffffffffffffffffffffffff6004351661010b565b005b341561009f57600080fd5b6100a76101ba565b60405190815260200160405180910390f35b34156100c457600080fd5b6100cc6101c0565b60405173ffffffffffffffffffffffffffffffffffffffff909116815260200160405180910390f35b341561010057600080fd5b6100926004356101dc565b600080543373ffffffffffffffffffffffffffffffffffffffff908116911614156101b6578190508073ffffffffffffffffffffffffffffffffffffffff1663fdacd5766001546040517c010000000000000000000000000000000000000000000000000000000063ffffffff84160281526004810191909152602401600060405180830381600087803b15156101a157600080fd5b6102c65a03f115156101b257600080fd5b5050505b5050565b60015481565b60005473ffffffffffffffffffffffffffffffffffffffff1681565b6000543373ffffffffffffffffffffffffffffffffffffffff908116911614156102065760018190555b505600a165627a7a7230582053a830dae789e493dffa80fb565ea0938e91e9944367ed28220bfdff76e77a780029",
  "source": "pragma solidity ^0.4.17;\r\n\r\ncontract Migrations {\r\n  address public owner;\r\n  uint public last_completed_migration;\r\n\r\n  modifier restricted() {\r\n    if (msg.sender == owner) _;\r\n  }\r\n\r\n  function Migrations() public {\r\n    owner = msg.sender;\r\n  }\r\n\r\n  function setCompleted(uint completed) public restricted {\r\n    last_completed_migration = completed;\r\n  }\r\n\r\n  function upgrade(address new_address) public restricted {\r\n    Migrations upgraded = Migrations(new_address);\r\n    upgraded.setCompleted(last_completed_migration);\r\n  }\r\n}\r\n",
  "sourcePath": "C:\\Users\\tireilly\\GitHub\\react-ethereum-web3-starter\\truff-n-stuff\\contracts\\Migrations.sol",
  "compiler": {
    "name": "solc",
    "version": "0.4.19+commit.c4cbbb05.Emscripten.clang"
  },
  "schemaVersion": "2.0.0",
  "updatedAt": "2018-03-15T21:52:55.995Z"
}